:1000000012C022C030C01FC01EC01DC01CC01BC0FB
:100010001AC019C018C017C016C015C014C013C02C
:1000200012C011C010C011241FBECFE5D4E0DEBF46
:10003000CDBF10E0A0E6B0E001C01D92AA36B10726
:10004000E1F720D0A8C0DCCF1F920F920FB60F921D
:1000500011248F9381E0809368008F910F900FBEE1
:100060000F901F9018951F920F920FB60F921124A8
:100070008F9381E0809369008F910F900FBE0F9056
:100080001F901895CF93DF930DD023D029D078946B
:10009000B89AC098C0E6D0E01BBC1ABCC098CE018C
:1000A00029D0FACF85B7826085BF85B78E7F85BF9F
:1000B0008BB780648BBF8A98929A85B7886085BF1A
:1000C00085B78B7F85BF8BB780688BBF8B98939AE2
:1000D000089583B7856083BF83B78D7F83BF0895FD
:1000E0008FB583688FBD8EB58A608EBD8EB58A7ED2
:1000F0008EBD08950F931F93FC0182B7813009F0E4
:1001000047C050814181328123819481B581A6818C
:100110001781752F7F5F61E0751708F060E050E090
:10012000640F81E0641708F080E0582B832F40E0D3
:10013000530F31E0581708F030E0432B822F30E0A6
:10014000420F21E0481708F020E0322B892F20E0F1
:10015000390F91E0381708F090E0292B8B2F90E0B1
:100160002B0FB1E0281708F0B0E09B2BBA2F80E0EE
:100170009A0FA1E09B1708F0A0E08A2B810F7083F3
:10018000618352834383348325839683878312BE9E
:0A0190001F910F910895F894FFCF1E
:00000001FF
