:1000000012C021C020C01FC01EC01DC01CC01BC00C
:100010001AC019C018C017C016C015C014C013C02C
:1000200012C011C010C011241FBECFE5D4E0DEBF46
:10003000CDBF10E0A0E6B0E001C01D92A136B1072F
:10004000E1F702D02BC0DCCFCF93DF9317D007D0DE
:10005000C0E6D0E0CE0106D0CE0117D0FBCF8A9803
:10006000929A0895829909C0E3EDF0E33197F1F790
:1000700000C0000021E0FC012083089584B3826267
:1000800084BB85B38D7D85BB0895FC018081882369
:1000900019F0A99A10820895A9980895F894FFCFAD
:00000001FF
