:1000000012C021C021C01FC01EC01DC01CC01BC00B
:100010001AC019C018C017C016C015C014C013C02C
:1000200012C011C010C011241FBECFE5D4E0DEBF46
:10003000CDBF10E0A0E6B0E001C01D92A236B1072E
:10004000E1F711D06EC0DCCF1F920F920FB60F9266
:1000500011248F9381E0809361008F910F900FBEE8
:100060000F901F901895CF93DF934BD030D03ED098
:100070007894C0E6D0E080916100882311F1AD9AB8
:100080008FE39DE0A3E081509040A040E1F700C0E5
:100090000000AD988FE39DE0A3E081509040A04028
:1000A000E1F700C00000AD9A8FE39DE0A3E081502E
:1000B0009040A040E1F700C00000AD9810926100B0
:1000C00001C0AD98CE0106D0CE0122D0D4CF8A98FF
:1000D000929A0895829909C0E3EDF0E33197F1F720
:1000E00000C0000021E0FC012083089585B78860EE
:1000F00085BF85B78B7F85BF80E88BBF8B98939A30
:10010000089584B3826284BB85B38D7D85BB0895D9
:10011000FC018081882319F0A99A10820895A9987A
:060120000895F894FFCFE2
:00000001FF
