:1000000012C021C021C01FC01EC01DC01CC01BC00B
:100010001AC019C018C017C016C015C014C013C02C
:1000200012C011C010C011241FBECFE5D4E0DEBF46
:10003000CDBF10E0A0E6B0E001C01D92A236B1072E
:10004000E1F711D049C0DCCF1F920F920FB60F928B
:1000500011248F9381E0809361008F910F900FBEE8
:100060000F901F90189528D00CD01AD078948091BA
:100070006100882321F0AD9A10926100F8CFAD980D
:10008000F6CF8A98929A0895829909C0E3EDF0E339
:100090003197F1F700C0000021E0FC0120830895B2
:1000A00085B7886085BF85B78B7F85BF8BB7806834
:1000B0008BBF8B98939A089584B3826284BB85B377
:1000C0008D7D85BB0895FC018081882319F0A99A54
:0C00D00010820895A9980895F894FFCFBD
:00000001FF
