:1000000012C021C021C01FC01EC01DC01CC01BC00B
:100010001AC019C018C017C016C015C014C013C02C
:1000200012C011C010C011241FBECFE5D4E0DEBF46
:10003000CDBF10E0A0E6B0E001C01D92AA36B10726
:10004000E1F711D03AC1DCCF1F920F920FB60F9299
:1000500011248F9381E0809369008F910F900FBEE0
:100060000F901F901895EF92FF920F931F93CF93CD
:10007000DF939DD082D090D0C8D07894C0E6D0E0F5
:1000800009E610E00F2EF8E6EF2EF0E0FF2EF02D3F
:10009000CE01C2D080916700882351F5882349F5AD
:1000A00080916600882321F5882319F580916500E9
:1000B0008823F1F48823E9F4809164008823C1F453
:1000C0008823B9F480916300882391F4882389F40C
:1000D00080916200882361F4882359F48091610043
:1000E000883030F4873029F480916000803D08F03A
:1000F000A99A80916700882351F58823C9F58091DA
:100100006600882321F5882399F58091650088236E
:10011000F1F4882369F5809164008823C1F4882371
:1001200039F580916300882391F4882309F5809143
:100130006200882361F48823D9F4809161008031C2
:1001400030F48F30A9F480916000803A88F0A9984B
:100150001092600010926100109262001092630091
:100160001092640010926500109266001092670071
:10017000C80124D0C70104D08BCF8A98929A0895E1
:10018000829909C0E3EDF0E33197F1F700C0000078
:1001900021E0FC012083089585B7886085BF85B77D
:1001A0008B7F85BF80E88BBF8B98939A089584B32B
:1001B000826284BB85B38D7D85BB0895FC018081FF
:1001C000882309F1AD9A8FE39DE0A3E08150904030
:1001D000A040E1F700C00000AD988FE39DE0A3E0F0
:1001E00081509040A040E1F700C00000AD9A8FE33D
:1001F0009DE0A3E081509040A040E1F700C00000E6
:10020000AD9810820895AD98089583B7856083BF37
:1002100083B78D7F83BF08950F931F93FC0182B72F
:10022000813009F047C0508141813281238194811E
:10023000B581A6811781752F7F5F61E0751708F082
:1002400060E050E0640F81E0641708F080E0582B14
:10025000832F40E0530F31E0581708F030E0432B74
:10026000822F30E0420F21E0481708F020E0322BC7
:10027000892F20E0390F91E0381708F090E0292B02
:100280008B2F90E02B0FB1E0281708F0B0E09B2BEC
:10029000BA2F80E09A0FA1E09B1708F0A0E08A2B0C
:1002A000810F7083618352834383348325839683D4
:0E02B000878312BE1F910F910895F894FFCF1F
:00000001FF
